:020000040800F2
:1000000000000220D50E0008C90D0008CB0D000825
:10001000CD0D0008CF0D0008D10D00080000000034
:10002000000000000000000000000000D30D0008E8
:10003000D50D000800000000D70D0008D90D0008FC
:10004000250F0008250F0008250F0008250F0008C0
:10005000250F0008250F0008250F0008250F0008B0
:10006000250F0008250F0008250F0008250F0008A0
:10007000250F0008250F0008250F0008250F000890
:10008000250F0008250F0008250F0008250F000880
:10009000250F0008250F0008250F0008250F000870
:1000A000250F0008250F0008250F0008250F000860
:1000B000250F0008250F0008250F0008250F000850
:1000C000250F0008250F0008250F0008250F000840
:1000D000250F0008250F0008250F0008250F000830
:1000E000250F0008250F0008250F0008250F000820
:1000F000250F0008250F0008250F0008250F000810
:10010000250F0008250F0008250F0008250F0008FF
:10011000250F0008250F0008250F0008250F0008EF
:10012000250F0008250F0008250F0008250F0008DF
:10013000250F00080000000000000000250F000847
:10014000250F0008250F0008250F0008250F0008BF
:10015000250F0008250F0008250F0008250F0008AF
:10016000250F0008250F0008250F0008250F00089F
:10017000250F0008250F0008250F000800000000CB
:1001800000000000250F0008000000000000000033
:10019000250F00080000000000000000250F0008E7
:1001A000000000000000000000000000250F000813
:1001B000250F0008250F0008250F0008250F00084F
:0401C000250F0008FF
:1001D00010B5054C237833B9044B13B10448AFF381
:1001E00000800123237010BD5C000020000000008F
:1001F000982E000808B5034B1BB103490348AFF321
:10020000008008BD0000000060000020982E00085B
:10021000034613F8012B002AFBD1181A0138704746
:1002200001F0FF01102A2BDB10F0070F08D010F8A7
:10023000013B013A8B422DD010F0070F42B3F6D1AB
:10024000F0B441EA012141EA014122F007047FF0C4
:1002500000070023F0E80256083C85EA010586EA1B
:10026000010685FA47F5A3FA87F586FA47F6A5FA57
:1002700087F68EB9EED1F0BC01F0FF0102F0070263
:1002800032B110F8013B013A83EA010313B1F8D10E
:100290000020704701387047002D06BF35460338EF
:1002A000073815F0010F07D1013015F4807F02BF28
:1002B000013015F4C03F0130F0BC0138704700BF79
:1002C00053B94AB9002908BF00281CBF4FF0FF31BD
:1002D0004FF0FF3000F088B9ADF1080C6DE904CEA5
:1002E00000F006F8DDF804E0DDE9022304B0704711
:1002F0002DE9F047089D8E4604468846002B4AD1DA
:100300008A42174662D9B2FA82F64EB1C6F120038C
:1003100001FA06F820FA03F3B74043EA0808B440AC
:100320004FEA174E1FFA87FCB8FBFEF1230C0EFBB9
:10033000118843EA084301FB0CF29A4209D9FB18E1
:1003400001F1FF3080F0EA809A4240F2E780023902
:100350003B449A1AA3B2B2FBFEF00EFB102243EA12
:10036000024300FB0CFC9C4509D9FB1800F1FF324D
:1003700080F0D6809C4540F2D3803B44023840EA6E
:100380000140A3EB0C0300211DB1F3400022C5E99D
:100390000032BDE8F0878B4205D90DB1C5E90001F7
:1003A00000210846F5E7B3FA83F1002946D17345E9
:1003B00002D3824200F20581841A6EEB030201200F
:1003C0009046002DE5D0C5E90048E2E7002A00F09C
:1003D0009080B2FA82F6002E40F0A4808A1A030CB4
:1003E0004FEA174E80B2BCB20121B2FBFEFC0EFBFD
:1003F0001C2243EA024304FB0CF29A4207D9FB1881
:100400000CF1FF3802D29A4200F2E080C4469B1AF7
:10041000B3FBFEF20EFB123340EA034302FB04F48B
:100420009C4207D9FB1802F1FF3002D29C4200F235
:10043000CA8002461B1B42EA0C40A5E7C1F1200618
:100440008B4022FA06F71F430EFA01F420FA06F356
:100450002EFA06FE4FEA1749234300FA01F81FFA65
:1004600087FCBEFBF9F01C0C09FB10EE44EA0E44BD
:1004700000FB0CFEA64502FA01F209D93C1900F175
:10048000FF3A80F09C80A64540F2998002383C44B7
:10049000A4EB0E041FFA83FEB4FBF9F309FB13442B
:1004A0004EEA044403FB0CFCA44508D93C1903F1B3
:1004B000FF3E80F08280A4457FD9023B3C4443EA62
:1004C0000040A4EB0C04A0FB02EC64457346E1463B
:1004D00062D35FD05DB1B8EB030264EB090404FAA8
:1004E00006F622FA01F31E43CC40C5E90064002160
:1004F0004FE7B1FBF2FC010C41EA0E4180B240EA49
:1005000001423B4638463C46B846BE462026B1FB33
:10051000F7F1A2EB080241EA0C4166E7014618E751
:1005200010462CE7C6F120022EFA02F3B740B14084
:1005300020FA02F24FEA174E0A43B3FBFEF8BCB2B0
:100540000EFB1833110C41EA034108FB04F9B040DB
:1005500089454FEA104380B23ED9791808F1FF3C33
:1005600001D289451FD8A1EB0901B1FBFEF909FBB6
:1005700004F80EFB191192B242EA0142424529D217
:10058000BA1809F1FF31C4D24245C2D2A9F1020121
:100590003A44BEE7F0459DD2BEEB02036CEB070C7C
:1005A0000138E14696E7A7EB09094944A8F1020C96
:1005B000B1FBFEF909FB04F8DBE773467FE7504621
:1005C00066E70846FDE63B44023A33E7ACF1020C2D
:1005D0003B441CE749469CE7A1EB0901C446B1FB3B
:1005E000FEF909FB04F8C4E7704700BF30B51422D8
:1005F0008BB00DEB0200002101F052FB00241D4BDB
:1006000001941A6B1C4D42F004021A631A6B02F03B
:1006100004020192019A02941A6B42F080021A635A
:100620001A6B02F080020292029A03941A6B42F053
:1006300001021A631A6B02F001020392039A0494F6
:100640001A6B42F002021A631B6B03F0020304935D
:10065000224628462021049B00F014FE202201237C
:1006600005A92846CDE90523CDE9074400F038FD6A
:100670000BB030BD00380240000002400FB400B59E
:10068000C3B044AB4FF4807153F8042B019302A81C
:1006900001F0F8FA002809DBFF28A8BFFF2082B28A
:1006A0004FF0FF33044802A901F0B5F943B05DF8FB
:1006B00004EB04B0704700BF7C00002008B5074879
:1006C000FFF7DCFF0648FFF7D9FF0648FFF7D6FF24
:1006D000BDE808400448FFF7D1BF00BFBC2E0008AA
:1006E000CA2E0008F72E0008342F00082DE9F84F15
:1006F000234B5B8CB0F1006F4FEA832305460C4619
:1007000003F1006301D3834204D8BDE8F84F1D48CC
:10071000FFF7B4BF4A1EB2F5805F05D3002914BFAE
:100720004FF480544FF4807462199A4288BF5C1B66
:100730001548DFF85CB0DFF85CA022462946FFF7D9
:100740009DFF002605EB0608A4EB06094146584626
:10075000FFF794FFB9F1100F28BF4FF010090027E1
:1007600018F8071050460137FFF788FFB945F7D151
:1007700006481036FFF782FFB442E3D8BDE8F88F91
:10078000007AFF1F582F00086F2F0008F43100086F
:10079000882F0008902F00082DE9F04F8748A3B05C
:1007A000FFF76CFF00F02AFC824600F021FC834634
:1007B00000F02CFC064600F02FFC054600F032FC51
:1007C000044600F025FE804600F0FCFD814600F066
:1007D000FFFD039000F00CFE07467948FFF74EFF3F
:1007E000CAF30B0340F23142934200F0BC8017D8A9
:1007F00040F22142934200F0B8800CD840F21342FC
:10080000934200F0B4806F4A6F4940F2194083422E
:1008100008BF0A4616E06B4A6C4940F22340F6E7EF
:1008200040F26342934200F0A48000F2978040F2CD
:100830003342934200F09F80624A6549B3F58B6F63
:1008400008BF0A4619466348FFF718FF1FFA8BF2E4
:1008500011466148FFF712FF334621465F482A469A
:10086000FFF70CFF2346CDE900565D4A192107A882
:1008700001F076F90DF1600A5A4807A9FFF7FEFE6C
:100880000DF1100BCDE90465069456460024069A36
:10089000049B1343059A13436FD1002C7ED09DF81F
:1008A00060308DF86030272C234606EB04020EAC36
:1008B000A8BF272300202146013012F8015D04F86B
:1008C000015B8342F8D188336B44002203F8502C3B
:1008D0004548464C464DFFF7D1FE464B4648196801
:1008E000FFF7CCFE454B4648598CFFF7C7FE4548FD
:1008F0004A464146FFF7C2FE3A4603994248FFF78F
:10090000BDFE424B42485968FFF7B8FE4148FFF729
:10091000B5FE414A41494248FFF7B0FE41484FF019
:100920000061FFF7ABFE4049404B41480B441C1BA4
:100930002146FFF7A3FE04F178418A0A3D48FFF7FC
:100940009DFE4FF000634FF0FF31A34229D13A489A
:10095000C94323B0BDE8F04FFFF790BE194A3749AD
:1009600040F2644053E7364A6CE7364A6AE7364A53
:1009700068E7364A66E7364A64E707AD002155F86E
:10098000040D0A220023FFF79BFC5D4528601146F9
:10099000F5D130320AF8012B013478E730230124F5
:1009A0007FE71A785140082241F300002840013ABD
:1009B00080EA5101F8D10133C7E700BFF4310008E4
:1009C000193000080B300008A42F0008C72F0008BA
:1009D000E32F000834300008573000087730000853
:1009E00096300008A6300008BD3000080000002046
:1009F0002083B8ED00ED00E0CF300008007AFF1F43
:100A0000E5300008F9300008183100087C000020AB
:100A1000373100084C3100086A3100087331000892
:100A20007F3100088E310008F43300085C0000209C
:100A3000A5310008BC310008DE310008FC2F000899
:100A4000BD2F0008B32F0008962F0008ED2F0008D7
:100A5000D52F00082DE9F34105460E4600F0AEFA09
:100A6000DFF850800746002400F0A8FAC31BB34209
:100A70000BD2002301220DF10701404601F019F8C5
:100A800098B99DF807300D2B08D13F2C98BF002353
:100A9000204698BF2B5502B0BDE8F0810A2BF4D058
:100AA000621C3F2A9CBF2B551446052000F08CFA8F
:100AB000DAE700BF7C00002070B50278302A0346D8
:100AC00005D1427802F0DF02582A00D1023300201B
:100AD00005461A5CB2B1A2F13004E6B2092E07D87D
:100AE00022460130092842EA0515F2D100200AE029
:100AF000A2F16104052C01D8573AF2E7A2F14104B2
:100B0000052C01D910B970BD373AEAE70D60012014
:100B1000F9E7000010B594B01422002108A801F0F4
:100B2000BFF81422002102A801F0BAF81F4B0022DE
:100B30000092196C41F0805119641B6C1C4903F040
:100B400080530093009B01920B6823F4404343F4CD
:100B500080430B600B6803F440430193019B012128
:100B600010234FF4A870CDE90A130F930423022435
:100B7000CDE9100307A8CDE90D42CDE91244079451
:100B800000F08EFC08B172B6FEE70F23CDE9023407
:100B90004FF48053CDE905300490214602A800F0BF
:100BA00077FB08B172B6FEE714B010BD0038024002
:100BB000007000402DE9F0439FB000F0D9F9FFF735
:100BC000A9FFFFF713FD00F033F9FFF7E5FD00F093
:100BD000F5F90446FFF772FD654FDFF89C810025AB
:100BE00040F6B73600F0EAF9001BB0421DD9604D5F
:100BF000604E614F002301220DF10E01284600F0E6
:100C000058FF00287FD19DF80E1049296FD83E2942
:100C100073D9A1F13F030A2B6FD8DFE803F0786E98
:100C20006E6E6E7B6E6E6E787200002301220DF187
:100C30000E01384600F03DFFB0B99DF80E30492B4B
:100C40000CD83E2B10D93F3B0A2B0DD8DFE803F020
:100C50001D0C0C0C0C200C0C0C1D1A00682B14D055
:100C6000692B0FD0642B13D03DB900F0A7F9001BFE
:100C7000B0F57A7F02D9FFF78FFD01250A2000F039
:100C8000A3F9AFE7FFF788FDEEE7FFF717FDEBE706
:100C90004046FFF7F3FC40F6B8310EA8FFF7DAFE46
:100CA0000028E1D00DF128093449CDF8009006ABB9
:100CB0000DF10F020EA800F089FF022815DD0023B8
:100CC00004A906A8CDE90433FFF7F6FE48B105A94B
:100CD0004846FFF7F1FE20B1DDE90401FFF706FD0C
:100CE000C2E72748FFF7CAFCBEE72648FAE76829AB
:100CF0000DD0692905D064290CD03046FFF7BEFC21
:100D000001E0FFF749FD0A2000F05EF972E7FFF706
:100D1000D5FCF8E73846FFF7B1FC41F288310EA860
:100D2000FFF798FE0028EED00AAC1449009406ABF9
:100D30000DF10F020EA800F049FF022815DD002377
:100D400004A906A8CDE90433FFF7B6FE48B105A90A
:100D50002046FFF7B1FE20B1DDE90401FFF7C6FC34
:100D6000D1E70748FFF78AFCCDE70648FAE700BF5E
:100D70007C00002054320008F731000817320008C8
:100D8000253200083432000872B6FEE782B00D4BFF
:100D9000002100915A6C42F480425A645A6C02F469
:100DA00080420092009A01911A6C42F080521A64BB
:100DB0001B6C03F080530193019B072002B000F0ED
:100DC00037B900BF00380240FEE7FEE7FEE7FEE766
:100DD000FEE770477047704700F0E4B80B4A1168AF
:100DE00010B5034609B90A491160106809490A4C4F
:100DF0000344091B8B4206D900F05AFF0C23036001
:100E00004FF0FF3010BD1360FCE700BF78000020FA
:100E1000100200200000022000040000034AD2F863
:100E2000883043F47003C2F88830704700ED00E06A
:100E30000B480C4A08B54FF4E133C0E90023002306
:100E40000C22C0E90233C0E905230361C36100F04D
:100E5000B3FD18B1BDE80840FFF796BF08BD00BF5D
:100E60007C0000200044004010B5044688B01422E5
:100E7000002103A800F014FF2268144B9A4222D1EB
:100E800003F5FA33002101911A6C114842F4003243
:100E90001A641A6C02F400320192019A02911A6BE0
:100EA00042F001021A631B6B03F001030293029BE1
:100EB0000C2202230321CDE903230723CDE90613E6
:100EC00003A900F00DF908B010BD00BF00440040B8
:100ED00000000240DFF834D0FFF7A0FF0C480D49B6
:100EE0000D4A002302E0D458C4500433C4188C4285
:100EF000F9D30A4A0A4C002301E013600432A242EB
:100F0000FBD300F0DBFEFFF755FE70470000022028
:100F1000000000205C000020F43300085C0000208A
:100F200010020020FEE7000038B50E4B1A784FF48F
:100F30007A73B3FBF2F30C4A05461068B0FBF3F08A
:100F400000F0BAF8044658B90F2D09D802462946D0
:100F50004FF0FF3000F07EF8044B20461D6038BD96
:100F60000120FCE704000020000000200800002011
:100F700008B50B4B1A6842F400721A601A6842F402
:100F800080621A601A6842F480721A60032000F0CE
:100F90004FF80020FFF7C8FFFFF7F8FE002008BD5C
:100FA000003C0240034A044B11681B780B44136059
:100FB000704700BFC400002004000020014B1868E7
:100FC000704700BFC400002038B50446FFF7F6FFA5
:100FD000631C1CBF054B1B78054618BFE418FFF7C0
:100FE000EDFF431BA342FAD338BD00BF040000202D
:100FF000014B1868000C7047002004E0024B186891
:10100000C0F30B00704700BF002004E0014BD3F891
:10101000100A70470070FF1F014BD3F8140A704785
:101020000070FF1F014BD3F8180A70470070FF1FB4
:101030000749CA6822F4E0620302120403F4E06381
:10104000120C134343F0BF6343F40033CB6070478B
:1010500000ED00E0164B30B5DC68C4F30224C4F1A7
:101060000703251D042B28BF0423062D4FF0FF3551
:101070008CBF033C002405FA03F321EA0303A540D7
:1010800022EA0502A340002843EA0203ACBF00F1B4
:101090006040084A4FEA0313B8BF00F00F00DBB20C
:1010A000AABF00F56140135480F8003330BD00BF83
:1010B00000ED00E014ED00E00138B0F1807F0BD2CC
:1010C0004FF0E023054A5861F02182F823100020F8
:1010D000072298611A6170470120704700ED00E017
:1010E0002DE9F74FDFF89891634A00230D6801243A
:1010F0009C4004EA0506AC4340F0AB804D680327F2
:1011000005F003044FEA430807FA08FC671E012FA5
:101110006FEA0C0C34D8876807EA0C0ECF6807FA20
:1011200008F747EA0E078760476827EA060EC5F307
:1011300000179F4047EA0E074760C76807EA0C0E92
:101140008F6807FA08F747EA0E07022CC76019D123
:101150004FEAD30A00EB8A0A03F0070BDAF8207093
:101160004FEA8B0B4FF00F0E0EFA0BFE27EA0E0E16
:101170000F6907FA0BF747EA0E07CAF8207001E07B
:10118000032CDAD1076804FA08F407EA0C073C4399
:1011900015F4403F04605CD000240194D9F8444029
:1011A00044F48044C9F84440D9F8444023F003078C
:1011B00007F1804704F4804407F59C37019403F05D
:1011C000030C019CD7F808E04FEA8C0C0F2404FABA
:1011D0000CF42EEA040E294CA04241D004F58064A0
:1011E000A0423FD004F58064A0423DD004F5806465
:1011F000A0423BD004F58064A04239D004F580645D
:10120000A04237D004F58064A04214BF072406240E
:1012100004FA0CF444EA0E04BC609468F74315F435
:10122000801F0CBF3C4034439460D46815F4001F09
:101230000CBF3C403443D460546815F4003F0CBFED
:101240003C40344354601468ED0354BF3C40344385
:1012500014600133102B7FF449AF03B0BDE8F08F69
:101260000024D5E70124D3E70224D1E70324CFE704
:101270000424CDE70524CBE7003C014000000240F8
:10128000003802400AB1816170470904FBE70000A1
:101290002DE9F0410D46044610B90120BDE8F0816A
:1012A000434B1A6802F00F028A4228D321688F0745
:1012B0002DD4C80740D43E4B1A6802F00F02AA4250
:1012C00065D8226851076BD4130707D5394A2169BD
:1012D000936823F4604343EAC103936000F098F8F5
:1012E000344B354A9B68C3F30313D35CD840334B6C
:1012F0001860334B1868FFF717FE0020CEE7CAB21C
:101300001A701B6803F00F038B42C6D1CEE7294B3E
:1013100011F0040F1EBF9A6842F4E0529A600E0763
:1013200042BF9A6842F460429A609A68A06822F0CC
:10133000F00202439A60BCE762681E4B012A1CD18E
:101340001B6813F4003FA8D01A4EB36823F00303C0
:101350001343B360FFF732FE41F288380746B368A3
:10136000626803F00C03B3EB820FA4D0FFF726FEF4
:10137000C01B4045F3D9032090E7911E01291B684B
:1013800002D813F0007FDEE713F0020FDBE7EAB2CA
:101390001A701B6803F00F03AB427FF47EAF90E737
:1013A0000449E0688B6823F4E05303438B608BE7C8
:1013B000003C024000380240D1320008000000200A
:1013C00008000020014B1868704700BF0000002093
:1013D000044B054A9B68C3F38223D35C034A10681D
:1013E000D840704700380240C93200080000002091
:1013F000044B054A9B68C3F34233D35C034A10682D
:10140000D840704700380240C93200080000002070
:10141000204908B58B6803F00C03082B07D00C2B70
:1014200020D01D481D4A042B18BF104608BD4A682D
:101430004B68496813F4800314BF17481748C1F379
:10144000881118BF002302F03F02A1FB0001FEF744
:1014500037FF104B5B68C3F3014301335B00B0FB04
:10146000F3F0E3E74A684B68496813F4800314BF5C
:1014700009480A48C1F3881118BF002302F03F024F
:10148000A1FB0001FEF71CFF024B5B68C3F3027374
:10149000E5E700BF0038024000127A000024F400A3
:1014A0002DE9F3410446002831D00368DF0710D44A
:1014B00023689E0767D42368190700F1B280236868
:1014C0005A0700F1D280A369002B40F03981002037
:1014D00034E0984B9A6802F00C02042A10D09A6803
:1014E00002F00C02082A02D15B685D0208D4914B1D
:1014F0009A6802F00C020C2A0BD15A68510208D5E6
:101500008C4B1B689A03D3D56368002BD0D1012084
:1015100014E06268B2F5803F13D11A6842F4803259
:101520001A60FFF74BFD834E054633689B03BFD41B
:10153000FFF744FD401B6428F7D9032002B0BDE843
:10154000F0817C4DB2F5A02F2B6807D143F48023A6
:101550002B602B6843F480332B60E2E723F4803365
:101560002B602B6823F480232B60002AD9D1FFF74E
:1015700025FD06462B689F039AD5FFF71FFD801BAC
:101580006428F7D9D9E76B4B9A6812F00C0F10D08A
:101590009A6802F00C02082A02D15B685E0208D544
:1015A000644A936803F00C030C2B11D153685D025D
:1015B0000ED4604A1368990702D5E368012BA6D1BF
:1015C0001368216923F0F80343EAC103136072E74B
:1015D000E268594BB2B101221A60FFF7EFFC554D9A
:1015E00006462B689B0707D52B68226923F0F80372
:1015F00043EAC2032B605EE7FFF7E0FC801B022892
:10160000EFD99AE71A60FFF7D9FC4A4E05463368CE
:101610009F077FF550AFFFF7D1FC401B0228F6D99A
:101620008BE76269444B82B10122C3F8802EFFF739
:10163000C5FC404E0546736F9B073FF540AFFFF773
:10164000BDFC401B0228F6D977E7C3F8802EFFF7D0
:10165000B5FC384E0546736F9F077FF530AFFFF737
:10166000ADFC401B0228F6D967E7324B1A6C12F02A
:10167000805228D101921A6C42F080521A641B6C7D
:1016800003F080530193019B01272C4D2B68D80553
:101690001BD5A368274D012B27D12B6F43F00103E6
:1016A0002B67FFF78BFC234E054641F28838336FDA
:1016B0009A0739D5002F3FF406AF1E4A136C23F06A
:1016C00080531364FFE60027DFE72B6843F4807341
:1016D0002B60FFF773FC06462B68D905D9D4FFF7BA
:1016E0006DFC801B0228F7D927E7052B04D12B6F4F
:1016F00043F004032B67D0E72A6F22F001022A6728
:101700002A6F22F004022A67002BCAD1FFF756FC89
:1017100041F2883806462B6F9B07CBD5FFF74EFC6E
:10172000801B4045F7D908E7FFF748FC401B4045C0
:10173000BDD902E700380240000047420070004077
:101740003C4DAA6802F00C02082A41D0022B3A4B09
:101750004FF000021A662ED1FFF730FC06462B68C8
:10176000990122D4D4E907321343626A43EA82130F
:10177000E26A43EA0263226B43EA0273A26A5208F6
:10178000013A43EA02436B602B4B2A4D01221A6651
:10179000FFF714FC04462B689A013FF598AEFFF75B
:1017A0000DFC001B0228F6D9C7E6FFF707FC801BDB
:1017B0000228D4D9C1E6FFF701FC04462B689B013F
:1017C0007FF585AEFFF7FAFB001B0228F6D9B4E6D9
:1017D000012B3FF49CAE6B68E26903F480019142F7
:1017E0007FF495AE216A03F03F028A427FF48FAE08
:1017F000616A47F6C0721A40B2EB811F7FF487AE70
:10180000A26A520803F44031013AB1EB024F7FF46F
:101810007EAEE16A03F07062B2EB016F7FF477AEE7
:10182000226B03F0E043B3EB027F14BF01200020E2
:1018300084E600BF0038024000004742026802F11F
:101840000C0353E8003F23F490730C3242E800315C
:1018500002680029F2D102F1140353E8003F23F09B
:10186000010302F1140C4CE800310029F3D1036BA1
:10187000012B0BD102F10C0353E8003F23F01003BE
:1018800002F10C0C4CE800310029F3D1202380F840
:1018900042300023036370470268C16838B513699A
:1018A00023F440530B431361054683680069D168F4
:1018B000034368690343E86921F4164121F00C01F0
:1018C00003430B43D3605369A96923F440730B436B
:1018D00053611F4B9A4203D003F580639A4224D18F
:1018E000FFF786FDEA691921B2F5004FD5E90043FB
:1018F000A0FB01011CD1DA184FF0000545EB0503F0
:10190000FEF7DEFC6422B0FBF2F102FB1103DB0008
:101910003233B3FBF2F303F007025B0002EB011278
:1019200003F4F8731344A36038BDFFF751FDD9E702
:101930009A009B0FFEF7C4FC6422B0FBF2F102FB9D
:1019400011031B013233B3FBF2F303EB0113EAE79C
:1019500000100140F7B505460C4617461E462A689A
:10196000136834EA030301D1002021E0701CF7D092
:10197000FFF724FBC01B86421CD3DEB12B68DA685C
:101980005107ECD5802CEAD0402CE8D01A68120719
:10199000E5D5002401941A6801925B6801932846FA
:1019A000019BFFF74BFF08236B6485F84040012043
:1019B00003B0F0BD0320FBE710B5044648B390F830
:1019C000413003F0FF021BB980F84020FFF74CFACA
:1019D0002268242384F84130D36823F40053D36071
:1019E0002046FFF759FF23681A6922F490421A61D2
:1019F0005A6922F02A025A61DA6842F40052DA6027
:101A000000202023606484F8413084F84230606311
:101A100010BD0120FCE72DE9F843984690F84130CD
:101A2000202B04460E4617463FD100293FD0002AFE
:101A30003DD021230025456480F84130FFF7BEFAF0
:101A4000A368A784B3F5805F8146E78403D1236947
:101A50000BB935461E46E38C9BB253B943464A4602
:101A600040212046FFF776FF202350B984F841300B
:101A70000AE043464A4680212046FFF76BFF28B123
:101A8000202384F841300320BDE8F88322684EB952
:101A900035F8023BC3F308035360E18C013989B286
:101AA000E184D8E716F8013BF6E70220ECE70120D5
:101AB000EAE72DE9F8431F4690F84230202B044610
:101AC0000E46914648D1002948D0002A46D022230C
:101AD0000025456480F842300563FFF76FFAA3687C
:101AE000A4F82C90B3F5805F8046A4F82E9003D123
:101AF00023690BB935461E46E08D80B218B9202304
:101B000084F842300AE03B46424620212046FFF757
:101B100021FF28B1202384F842300320BDE8F88358
:101B200023684EB95B68C3F3080325F8023BE38DD5
:101B3000013B9BB2E385DFE7A268B2F5805F02D08C
:101B400032B9226922B95968C9B206F8011BEEE719
:101B5000596801F07F01F8E70220DFE70120DDE7A7
:101B60000CB430B5184B0C1E1D689DB008DA8B23E1
:101B70002B604FF0FF301DB0BDE8304002B0704721
:101B80004FF40273ADF814304FF000031B9314BFF1
:101B900004F1FF332346049307934FF6FF7302903B
:101BA0000690ADF81630209A21AB02A92846019381
:101BB00000F0FEF9431CBCBF8B232B60002CDAD055
:101BC000029B00221A70D6E70C0000200EB470B5FC
:101BD0009DB021AC00254FF4017254F8046BADF8B0
:101BE00014201B9502900690FEF712FB0B4B0390FE
:101BF00007900B480B934FF6FF73ADF81630324643
:101C0000234602A900680F951495019400F026FB65
:101C10001DB0BDE8704003B0704700BF251C000830
:101C20000C0000200020704730B51446002C9BB0FB
:101C300005461A4605DA8B2303604FF0FF301BB0D0
:101C400030BD4FF40273ADF80C304FF00003199320
:101C500014BF04F1FF332346029305934FF6FF733D
:101C600000910491ADF80E3069461E9B00F0A0F97A
:101C7000431CBCBF8B232B60002CE0D0009B0022B8
:101C80001A70DCE707B5009313460A46014603487D
:101C90000068FFF7C9FF03B05DF804FB0C000020EB
:101CA00002440346934200D1704703F8011BF9E751
:101CB000014B1868704700BF0C00002070B50D4D37
:101CC0000D4C641BA4100026A64209D10B4D0C4CF0
:101CD00001F0E2F8641BA4100026A64205D170BDF5
:101CE00055F8043B98470136EEE755F8043B984712
:101CF0000136F2E7EC330008EC330008EC3300085F
:101D0000F03300087047704738B50546002941D0C8
:101D100051F8043C0C1F002BB8BFE41800F0E0F8A9
:101D20001D4A136833B9636014602846BDE8384023
:101D300000F0DCB8A34208D9206821188B4201BF0B
:101D400019685B6809182160EDE71A465B680BB1FA
:101D5000A342FAD911685018A0420BD1206801445F
:101D6000501883421160E0D118685B6853600844E2
:101D70001060DAE702D90C232B60D6E7206821181F
:101D80008B4204BF19685B68636004BF0918216057
:101D90005460CAE738BD00BF0C02002070B50F4E7A
:101DA0000C463168054611B900F036FF3060214617
:101DB000284600F031FF431C03D14FF0FF3420468A
:101DC00070BDC41C24F00304A042F8D0211A284698
:101DD00000F022FF0130F2D1EFE700BF080200203F
:101DE0002DE9F843CD1C25F0030508350C2D38BF2F
:101DF0000C25002D064601DBA94204D90C233360D3
:101E00000020BDE8F883DFF8D48000F069F8D8F846
:101E100000301C4644BB29463046FFF7BFFF431C39
:101E2000044658D1D8F800402746002F43D1002C53
:101E30004BD023683946304604EB030900F0ECFE32
:101E4000814542D121686D1A29463046FFF7A6FF29
:101E500001303AD023682B442360D8F800305A6808
:101E600062BBC8F800700FE02268521B20D40B2A16
:101E700017D96119A342256018BF5960636808BF6C
:101E8000C8F8001062514B60304600F02FF804F1A2
:101E90000B00231D20F00700C21A1CBF1B1AA35001
:101EA000AFE76268A3420CBFC8F800205A60EBE7B6
:101EB00023466468AEE73C467F68B6E71A465B682F
:101EC000A342FBD100235360DEE70C23336030468E
:101ED00000F00CF894E70560D6E700BF0C02002084
:101EE0000148FFF70FBF00BF040200200148FFF7C1
:101EF0000ABF00BF040200202DE9F0478E681F468C
:101F0000BE420B6882460C4690462DD8B1F90C2093
:101F100012F4906F26D06569096905EB4505A3EBBE
:101F2000010905EBD5757B1C4B446D109D4238BFF4
:101F30001D46530527D52946FFF752FF064660B3D5
:101F400021694A4600F078FEA38923F4906343F0A8
:101F50008003A381266165614E44A5EB09052660D7
:101F6000A5603E46BE4200D93E4620683246414604
:101F700000F037FEA3689B1BA360236833442360F3
:101F80000020BDE8F0872A4600F064FE06460028DF
:101F9000E0D121695046FFF7B7FE0C23CAF80030A4
:101FA000A38943F04003A3814FF0FF30E9E700002D
:101FB0002DE9F04F98468B891B069DB007460D46CC
:101FC000144610D50B6973B94021FFF709FF28604B
:101FD000286130B90C233B604FF0FF301DB0BDE8E5
:101FE000F08F40236B610023099320238DF8293063
:101FF000CDF80C803023DFF89C818DF82A304FF02B
:10200000010923469A4613F8012B0AB1252AF9D172
:10201000BAEB040B0BD05B46224629463846FFF745
:102020006BFF013000F0A780099A5A4409929AF890
:102030000030002B00F09F8000234FF0FF32CDE9ED
:1020400005230AF1010A049307938DF853301A937C
:102050005446052214F8011B4E48FEF7E1F8049A95
:10206000D8B9D00644BF20238DF85330110744BFA0
:102070002B238DF853309AF800302A2B15D0079A6D
:10208000544600204FF00A0C214611F8013B303B2A
:10209000092B4BD9B0B1079214E0A0EB080309FA61
:1020A00003F313430493A246D2E7039B191D1B6855
:1020B0000391002BBBBF5B4242F0020207930793E0
:1020C000B8BF049223782E2B0AD163782A2B32D101
:1020D000039B1A1D1B68039243EAE37302340593C2
:1020E000DFF8C0A0217803225046FEF799F838B1F6
:1020F000049BA0EB0A004022824013430134049366
:1021000014F8011B24488DF828100622FEF788F8E1
:10211000002836D0214B1BBB039B073323F007035A
:1021200008330393099B334409936AE70CFB02329B
:102130000C460120A8E700230134059319464FF00F
:102140000A0C204610F8012B303A092A03D9002B3B
:10215000C6D00591C4E70CFB012104460123F0E73A
:1021600003AB00932A460E4B04A93846AFF3008018
:10217000421C0646D6D1AB895B063FF52DAF0998C8
:102180002CE703AB00932A46054B04A9384600F020
:1021900049FAEDE77B3200088532000800000000B4
:1021A000F91E00088132000838B54B1C144603D1D3
:1021B0004FF0FF35284638BD938923F020039381E3
:1021C000636B5268CDB28BB1A36B934208DD236879
:1021D0005A1E226003F8015C636801336360E9E71B
:1021E000214600F0C4FC0028F1D0E1E72169236812
:1021F00051B1994208D213F8011CA94204D1013B04
:10220000013223606260D5E7C4E90F3204F1440370
:1022100063630323A363234603F8465F236001231C
:10222000DCE710B50C46496B69B104F144039942EF
:1022300001D0FFF769FD236C63600020606313B178
:10224000E36B236010BD2369236000236360A389CF
:1022500043F02003A3814FF0FF30F3E72DE9F04F67
:102260000C46ADF5237D0021CDE94411A649A0918E
:102270000DF10408A549A64FCDF818810646A19195
:10228000009392F80090B9F1000F00F0588117F810
:10229000093013F0080302F1010519D06368002B1F
:1022A0000FDD23681A78BA5C120701D42A46E8E7E2
:1022B000459A0132459262680133013A62602360B7
:1022C000ECE7A19B2146304698470028E9D0EDE78E
:1022D000B9F1250F40F085804193439353782A2B21
:1022E00002BF1023951C41930A22AA461AF8011B2B
:1022F000A1F13003092B1ED9DFF818B2032258468A
:10230000FDF78EFF38B1419AA0EB0B00012383400B
:1023100013434193554615F8013B782B06D8572BAC
:1023200010D8252B5DD057D8002B75D003234793A9
:102330000A23429388E0439B02FB03113039439107
:102340005546D2E7A3F15802202AEFD801A151F84F
:1023500022F000BF272400082D2300082D230008A9
:10236000812400082D2300082D2300082D230008B8
:102370002D2300082D2300082D2300082D230008FD
:10238000972400087D240008DF230008DF230008CD
:10239000DF2300082D230008392400082D2300081E
:1023A0002D2300082D2300082D230008A724000852
:1023B000412400081F2400082D2300082D230008B5
:1023C000A32400082D2300087D2400082D230008E5
:1023D0002D23000827240008453B022BA6D80523FF
:1023E00031E06368002B0DDD23681A784A4540F020
:1023F000A680013362682360459B013A0133626025
:10240000459353E7A19B2146304698470028EBD0DF
:102410004498002840F08B804FF0FF308BE0419AC9
:1024200042F020024192419A42F4007241921022FD
:102430006E2B429202D905E000234293032302E06F
:1024400008234293042347936368002B39DD419BA3
:10245000590604D423681A78BA5C120738D4479B0B
:10246000022B47DC6B46224641A9304600F0F8F9C2
:10247000012864D002287FF419AFC9E70A22D7E700
:102480002946404600F03AFB419B43F0400341930C
:1024900005460123D7E7419B43F0400341930023C6
:1024A000D1E70223CFE74198C3063FF5FFAE009B7B
:1024B000459A191D00911B68C0074CBF1A801A600D
:1024C000F4E6A19B2146304698470028BFD09FE7FD
:1024D000459A013245926268013A002A626002DD43
:1024E00001332360B6E7A19B214630469847002878
:1024F000B0D08DE7042B0FDC6B46224641A9304655
:1025000000F008FAB4E700BFA92100082322000860
:10251000E2320008813200080A4B002B3FF4C6AEBD
:102520006B46224641A93046AFF30080A0E7A3895D
:102530005B063FF571AF0DF5237DBDE8F08F449844
:10254000F9E700BF000000002DE9F0471646984665
:102550008A680B69DDF820909342B8BF1346336058
:1025600091F8432007460C460AB1013333602368D3
:10257000990642BF336802333360256815F00605BB
:1025800006D104F1190AE36832689B1AAB4226DCD3
:1025900094F843302268003B18BF012392062BD4E5
:1025A00004F1430241463846C84701301ED0236833
:1025B000226903F00603042B02BFE5683368ED1AB5
:1025C000A3680CBF25EAE57500259342C4BF9B1A9A
:1025D000ED1800261A34B5421AD1002008E0012374
:1025E000524641463846C847013003D14FF0FF30CC
:1025F000BDE8F0870135C6E7E1185A1C302081F8A4
:102600004300224494F8451082F843100233C7E790
:102610000123224641463846C8470130E6D00136FC
:10262000D9E700002DE9FF470F7E0C9E782F9146D9
:1026300080460C469A4601F1430207D8622F0AD819
:10264000002F00F0D180582F00F0B88004F142062E
:1026500084F842703AE0A7F16303152BF6D801A184
:1026600051F823F0BD260008D12600084D260008A9
:102670004D2600084D2600084D260008D1260008EA
:102680004D2600084D2600084D2600084D2600085E
:10269000CF270008FB260008892700084D260008E0
:1026A0004D260008F12700084D260008FB260008EB
:1026B0004D2600084D2600089127000833681A1D92
:1026C0001B68326004F1420684F8423001239CE02A
:1026D00033682068191D3160060601D51D6803E0C6
:1026E0004506FBD5B3F90050002D03DA2D236D42CA
:1026F00084F8433058480A2311E0216833680806FB
:1027000053F8045B02D4490648BFADB26F2F52485C
:10271000336014BF0A230823002184F8431066683D
:10272000A660002E05DB21682E4321F00401216004
:102730004BD01646B5FBF3F103FB1157C75D06F806
:10274000017D2F46BB420D46F4D9082B0BD12368DF
:10275000DF0708D5236961689942DEBF302306F898
:10276000013C06F1FF36921B2261CDF800A04B46DA
:1027700003AA21464046FFF7E7FE01304AD14FF059
:10278000FF3004B0BDE8F087236843F020032360E6
:102790003248782784F84570236831681F0651F85D
:1027A000045B02D45F0648BFADB23160D90744BFB5
:1027B00043F0200323601DB11023ADE72648E9E76D
:1027C000236823F020032360F6E71646BDE733684D
:1027D00025686169181D30602E061B6801D51960D7
:1027E00002E06806FBD51980002323611646BCE78A
:1027F00033681A1D32601E68626800213046FDF79A
:102800000FFD08B1801B606063682361002384F8BA
:102810004330AAE72369324649464046D047013053
:10282000ADD023689B0713D4E068039B9842B8BFE0
:102830001846A6E70123324649464046D0470130B4
:102840009DD00135E36803995B1AAB42F2DCEBE7FC
:10285000002504F11906F5E78C3200089D320008C6
:102860002DE9F84315468A6880460C4632B98A69D4
:10287000002A14BF4FF0FF3201228A602268DFF87D
:102880009090D1065FBF1A68111D19601668002765
:10289000A06988B1012807D12B681A7863699B5C0D
:1028A00053B9002F31D022E0022820D12B681B78A9
:1028B00019F803301B071AD42368DA065EBF2B68A9
:1028C0001B7806F8013B2A686B6801322A60A2680F
:1028D000013B013A6B600137A26042B1002BD7DCAB
:1028E000D4F880312946404698470028D0D0236844
:1028F00013F0100305D1E2680132E260A26902B16F
:10290000337023693B4423610020BDE8F88300BF96
:10291000E23200082DE9F04F9846744B0C4682468F
:10292000164693E8070087B003AB83E80700704BB7
:10293000A169704A032908BF1A46A36801925A1E6A
:10294000B2F5AE7F88BF6FF4AE75274682BF03EB4A
:10295000050940F25D13A36057F81C3B43F4506334
:1029600098BF4FF0000923603D464FF0000B3168DF
:1029700003AB097853F82B000222FDF751FC28B372
:10298000BBF1010F59D162682AB92268082142F4CB
:10299000007261602260226822F4A0622260A26854
:1029A000511EA16092B13268511C3160127805F855
:1029B000012B7268013A002A726007DCD4F880218A
:1029C000314650469047002840F085800BF1010BBE
:1029D000BBF1030FCBD163680BB90A236360636853
:1029E00045496069C91A00F089F84FF0000BA368E7
:1029F0002268002B3DD03168606991F800C010F862
:102A00000C00002835D0BCF1300F24D1100522D5A0
:102A10000BF1010BB9F1000F03D0013309F1FF39BC
:102A2000A3607368013B002B73601BDD33680133C7
:102A30003360A368013BA360D9E7BBF1020FAED1BD
:102A4000226802F4C061B1F5007FC4D11021616039
:102A500042F48072A2E722F4106222600B7805F83B
:102A6000013BDEE7D4F880313146504698470028D4
:102A7000DFD02368D9050DD5BD4209D915F8011C51
:102A8000D4F87C3132465046984705F1FF394D461F
:102A9000BD4228D0226812F0100213D12A70636858
:102AA000019E39465046B047D8F8003021681A1DBB
:102AB000C8F8002011F0200F1B680FD01860E368E1
:102AC0000133E3602369ED1B5D442B442361002047
:102AD00007B0BDE8F08F4FF0000BCAE7CA074CBF44
:102AE00018801860EBE70120F2E700BFB02E000865
:102AF000A52D0008852E0008BE32000870B50B78A1
:102B000004465E2B0BBF4B784A1C8A1C002108BF71
:102B10000121013804F1FF0500F8011FA842FBD193
:102B20000BB9501E70BD81F00101E1541046024600
:102B300012F8015B2D2D05D05D2D16D0002DF1D0A2
:102B40002B46F2E746785D2EFAD0B342F8DC02302D
:102B50001A4601329642A154FBDCF21A013A5D1C7E
:102B6000B342A8BF0022AB18E1E71046DAE72DE92F
:102B7000F0410C46496B04F1440399421DD14FF4D6
:102B80008061FFF72DF918B94FF0FF30BDE8F081F3
:102B90004FF48063A36394F84630606380F8FF339A
:102BA00094F8453080F8FE3394F8443080F8FD33D3
:102BB00000F2FD3020600020E8E7A66B77003A467F
:102BC00000F048F805460028DED000EB0608014674
:102BD0003246404600F030F8C4E90D57C4F8008092
:102BE000E9E7884210B501EB020402D9844223468A
:102BF00007D8431EA14208D011F8012B03F8012F7A
:102C0000F8E7024401468A4200D110BD13F8014D95
:102C100002F8014DF7E7000038B5064D00230446E1
:102C200008462B60FEF7DAF8431C02D12B6803B18B
:102C3000236038BD000200200A44914200F1FF33B6
:102C400000D1704710B511F8014B03F8014F9142C4
:102C5000F9D110BD2DE9F041074614460D4621B9C2
:102C6000BDE8F0411146FFF7BBB82AB9FFF74CF8B1
:102C700025462846BDE8F08100F006F98442064664
:102C800002D8B4EB500FF4D821463846FFF7A8F825
:102C9000804608B94546ECE7B4422246294628BF9B
:102CA0003246FFF7C9FF29463846FFF72DF8F1E70E
:102CB000242B2DE9F0478646904601D8012B06D1FA
:102CC000FEF7F6FF162303600020BDE8F0873448C6
:102CD0000D462A4615F8014B065D16F00806F8D198
:102CE0002D2C10D12C780126951C33F0100215D113
:102CF000302C0DD12A7802F0DF02582A08D16C78E6
:102D0000023510230AE02B2C04BF2C78951CECE72D
:102D1000002BF6D1302C14BF0A23082306F1004CF7
:102D20000CF1FF3C0022BCFBF3F9104603FB19CA6F
:102D3000A4F13007092F0FD83C46A3421BDD571CD6
:102D400007D0814514D301D1A24511DB00FB03401C
:102D5000012215F8014BEBE7A4F14107192F01D827
:102D6000373CEAE7A4F16107192F04D8573CE4E7A0
:102D70004FF0FF32EDE7531C08D12223CEF800308C
:102D80006046B8F1000FA0D0691E06E006B14042CF
:102D9000B8F1000F99D0002AF6D1C8F8001094E7D6
:102DA000E2320008FFF784BF2DE9F043344E864637
:102DB0000D46284615F8014B375D17F00807F8D186
:102DC0002D2C10D12C780127851C33F0100015D143
:102DD000302C0DD1287800F0DF00582808D16C780D
:102DE000023510230AE02B2C04BF2C78851CECE75D
:102DF000002BF6D1302C14BF0A2308234FF0FF38E4
:102E00000026B8FBF3F803FB08F96FEA090930461E
:102E1000A4F1300CBCF1090F10D86446A3421EDDAA
:102E2000B6F1FF3F07D0804516D301D1A14513DB92
:102E300000FB0340012615F8014BE9E7A4F1410C22
:102E4000BCF1190F01D8373CE8E7A4F1610CBCF1E3
:102E5000190F04D8573CE1E74FF0FF36EBE7731C3E
:102E600006D12223CEF80030304632B9BDE8F083D7
:102E700007B14042002AF9D006B1691E1160F5E79A
:102E8000E2320008FFF790BF51F8043C181F002BF6
:102E9000BCBF0B58C0187047F8B500BFF8BC08BCE1
:102EA0009E467047F8B500BFF8BC08BC9E46704708
:102EB000C0320008C3320008C63200080D0A436F52
:102EC0006D6D616E64733A0D0A0020206920202028
:102ED0002020202020202020202D205072696E7478
:102EE000204D43552026206669726D7761726520FA
:102EF000696E666F0D0A00202064203C613E203C14
:102F00006C3E202020202D2044756D7020666C6161
:102F10007368205B612E2E612B6C29206173206801
:102F200065782028612C6C656E20696E20484558B4
:102F3000290D0A00202068206F72203F20202020C9
:102F40002020202D2053686F7720746869732068D3
:102F5000656C700D0A0D0A0041646472657373201C
:102F60006F7574206F6620666C6173680D0A00448B
:102F7000756D702030782530386C58202B203078D3
:102F80002530386C580D0A002530386C583A20002E
:102F900025303258200053544D3332463430782F88
:102FA0003431780053544D3332463432782F46341E
:102FB00033780053544D3332463434360053544D35
:102FC0003332463431310053544D3332463430318C
:102FD00078422F430053544D3332463430317844D5
:102FE0002F450053544D3332463431300053544D45
:102FF0003332463431332F463432330053544D3359
:1030000032463436392F4634373900556E6B6E6F81
:10301000776E2F4F74686572000D0A3D3D3D205359
:10302000544D3332204D435520496E666F203D3D4F
:103030003D0D0A004465766963652049443A2030B5
:10304000782530336C5820282573292C206465633B
:1030500020256C750D0A005265766973696F6E20C4
:1030600049443A2030782530346C582C206465630C
:1030700020256C750D0A00556E69717565204944EF
:103080003A202530386C582D2530386C582D253095
:10309000386C580D0A002530386C582530386C587B
:1030A0002530386C580053657269616C2028554989
:1030B0004420686578293A2025730D0A0055494453
:1030C00020646563696D616C3A2025730D0A0053B5
:1030D00043422D3E43505549443A203078253038FC
:1030E0006C580D0A00466C6173682073697A653A02
:1030F000202575204B420D0A00535953434C4B3A3F
:1031000020256C7520487A2C2048434C4B3A2025CA
:103110006C7520487A0D0A0050434C4B313A2025FB
:103120006C7520487A2C2050434C4B323A20256C49
:103130007520487A0D0A005541525432204020250E
:103140006C7520626175640D0A0D0A003D3D3D20DD
:103150004669726D7761726520496D6167652049C6
:103160006E666F203D3D3D0D0A0031303A35313AF3
:103170003131004E6F762032342032303235004209
:1031800075696C643A2025732025730D0A00466C1E
:103190006173682073746172743A20307825303816
:1031A0006C580D0A00466C61736820656E643A20A5
:1031B000202030782530386C580D0A00496D616741
:1031C000652073697A653A2020256C7520627974D0
:1031D00065732028256C75204B42290D0A00496D26
:1031E0006167652043524333323A203078253038C6
:1031F0006C580D0A0D0A00456E7465723A20642001
:103200003C616464725F6865783E203C6C656E5F0B
:103210006865783E0D0A002025632025313573202E
:103220002531357300496E76616C69642068657874
:103230002E0D0A0055736167653A2064203C616475
:1032400064725F6865783E203C6C656E5F68657887
:103250003E0D0A00556E6B6E6F776E20636D6420B5
:10326000272563272E20547970652027682720663C
:103270006F722068656C702E0D0A00232D302B2094
:1032800000686C4C00656667454647003031323354
:1032900034353637383941424344454600303132BF
:1032A0003334353637383961626364656600412DE1
:1032B00046612D66383930313233343536375D006A
:1032C0002B2D003030007858000000000001020370
:1032D00004000000000000000001020304060708CB
:1032E00009002020202020202020202828282828ED
:1032F00020202020202020202020202020202020CE
:103300002020881010101010101010101010101025
:103310001010040404040404040404041010101025
:1033200010101041414141414101010101010101E0
:103330000101010101010101010101010110101050
:1033400010101042424242424202020202020202B3
:103350000202020202020202020202020210101023
:10336000102000000000000000000000000000002D
:10337000000000000000000000000000000000004D
:10338000000000000000000000000000000000003D
:10339000000000000000000000000000000000002D
:1033A000000000000000000000000000000000001D
:1033B000000000000000000000000000000000000D
:1033C00000000000000000000000000000000000FD
:1033D00000000000000000000000000000000000ED
:0433E00000000000E9
:0833E4002CCEFF7F0100000068
:0433EC00F5010008DF
:0433F000D1010008FF
:1033F4000024F40001000000100000001000002070
:1034040000000000C80000203001002098010020C6
:1034140000000000000000000000000000000000A8
:103424000000000000000000000000000000000098
:103434000000000000000000000000000000000088
:0C3444000000000000000000000000007C
:0400000508000ED50C
:00000001FF
